{
  "abi": [
    {
      "type": "constructor",
      "inputs": [
        {
          "name": "_name",
          "type": "string",
          "internalType": "string"
        },
        {
          "name": "_symbol",
          "type": "string",
          "internalType": "string"
        },
        {
          "name": "_initialShareHolder",
          "type": "address",
          "internalType": "address"
        },
        {
          "name": "_minRequired",
          "type": "uint256",
          "internalType": "uint256"
        },
        {
          "name": "initialCapital",
          "type": "uint256",
          "internalType": "uint256"
        }
      ],
      "stateMutability": "nonpayable"
    },
    {
      "type": "function",
      "name": "MIN_REQUIRED",
      "inputs": [],
      "outputs": [
        {
          "name": "",
          "type": "uint256",
          "internalType": "uint256"
        }
      ],
      "stateMutability": "view"
    },
    {
      "type": "function",
      "name": "addProposal",
      "inputs": [
        {
          "name": "data",
          "type": "bytes",
          "internalType": "bytes"
        },
        {
          "name": "title",
          "type": "string",
          "internalType": "string"
        },
        {
          "name": "dilutionsTO",
          "type": "address[]",
          "internalType": "address[]"
        },
        {
          "name": "dilutionsFROM",
          "type": "address[]",
          "internalType": "address[]"
        },
        {
          "name": "dilutionsAMOUNT",
          "type": "uint256[]",
          "internalType": "uint256[]"
        },
        {
          "name": "totalProposedDilutions",
          "type": "uint256",
          "internalType": "uint256"
        }
      ],
      "outputs": [],
      "stateMutability": "nonpayable"
    },
    {
      "type": "function",
      "name": "allowance",
      "inputs": [
        {
          "name": "owner",
          "type": "address",
          "internalType": "address"
        },
        {
          "name": "spender",
          "type": "address",
          "internalType": "address"
        }
      ],
      "outputs": [
        {
          "name": "",
          "type": "uint256",
          "internalType": "uint256"
        }
      ],
      "stateMutability": "view"
    },
    {
      "type": "function",
      "name": "approve",
      "inputs": [
        {
          "name": "spender",
          "type": "address",
          "internalType": "address"
        },
        {
          "name": "value",
          "type": "uint256",
          "internalType": "uint256"
        }
      ],
      "outputs": [
        {
          "name": "",
          "type": "bool",
          "internalType": "bool"
        }
      ],
      "stateMutability": "nonpayable"
    },
    {
      "type": "function",
      "name": "approveProposal",
      "inputs": [
        {
          "name": "proposalId",
          "type": "uint256",
          "internalType": "uint256"
        }
      ],
      "outputs": [],
      "stateMutability": "nonpayable"
    },
    {
      "type": "function",
      "name": "approved",
      "inputs": [
        {
          "name": "",
          "type": "uint256",
          "internalType": "uint256"
        },
        {
          "name": "",
          "type": "address",
          "internalType": "address"
        }
      ],
      "outputs": [
        {
          "name": "",
          "type": "bool",
          "internalType": "bool"
        }
      ],
      "stateMutability": "view"
    },
    {
      "type": "function",
      "name": "balanceOf",
      "inputs": [
        {
          "name": "account",
          "type": "address",
          "internalType": "address"
        }
      ],
      "outputs": [
        {
          "name": "",
          "type": "uint256",
          "internalType": "uint256"
        }
      ],
      "stateMutability": "view"
    },
    {
      "type": "function",
      "name": "burn",
      "inputs": [
        {
          "name": "value",
          "type": "uint256",
          "internalType": "uint256"
        }
      ],
      "outputs": [],
      "stateMutability": "nonpayable"
    },
    {
      "type": "function",
      "name": "burnFrom",
      "inputs": [
        {
          "name": "account",
          "type": "address",
          "internalType": "address"
        },
        {
          "name": "value",
          "type": "uint256",
          "internalType": "uint256"
        }
      ],
      "outputs": [],
      "stateMutability": "nonpayable"
    },
    {
      "type": "function",
      "name": "decimals",
      "inputs": [],
      "outputs": [
        {
          "name": "",
          "type": "uint8",
          "internalType": "uint8"
        }
      ],
      "stateMutability": "view"
    },
    {
      "type": "function",
      "name": "executeProposal",
      "inputs": [
        {
          "name": "proposalId",
          "type": "uint256",
          "internalType": "uint256"
        }
      ],
      "outputs": [],
      "stateMutability": "nonpayable"
    },
    {
      "type": "function",
      "name": "getAllProposals",
      "inputs": [],
      "outputs": [
        {
          "name": "",
          "type": "tuple[]",
          "internalType": "struct CompanyToken.Proposal[]",
          "components": [
            {
              "name": "id",
              "type": "uint256",
              "internalType": "uint256"
            },
            {
              "name": "owner",
              "type": "address",
              "internalType": "address"
            },
            {
              "name": "title",
              "type": "string",
              "internalType": "string"
            },
            {
              "name": "data",
              "type": "bytes",
              "internalType": "bytes"
            },
            {
              "name": "executed",
              "type": "bool",
              "internalType": "bool"
            },
            {
              "name": "timestamp",
              "type": "uint256",
              "internalType": "uint256"
            },
            {
              "name": "approvals",
              "type": "uint256",
              "internalType": "uint256"
            },
            {
              "name": "totalProposedDilutions",
              "type": "uint256",
              "internalType": "uint256"
            }
          ]
        }
      ],
      "stateMutability": "view"
    },
    {
      "type": "function",
      "name": "getAllShareHolders",
      "inputs": [],
      "outputs": [
        {
          "name": "",
          "type": "tuple[]",
          "internalType": "struct CompanyToken.ShareHolder[]",
          "components": [
            {
              "name": "id",
              "type": "uint256",
              "internalType": "uint256"
            },
            {
              "name": "addr",
              "type": "address",
              "internalType": "address"
            },
            {
              "name": "amount",
              "type": "uint256",
              "internalType": "uint256"
            }
          ]
        }
      ],
      "stateMutability": "view"
    },
    {
      "type": "function",
      "name": "getDilutionsForProposal",
      "inputs": [
        {
          "name": "proposalId",
          "type": "uint256",
          "internalType": "uint256"
        }
      ],
      "outputs": [
        {
          "name": "",
          "type": "tuple[]",
          "internalType": "struct CompanyToken.Dilutions[]",
          "components": [
            {
              "name": "timestamp",
              "type": "uint256",
              "internalType": "uint256"
            },
            {
              "name": "from",
              "type": "address",
              "internalType": "address"
            },
            {
              "name": "to",
              "type": "address",
              "internalType": "address"
            },
            {
              "name": "amount",
              "type": "uint256",
              "internalType": "uint256"
            }
          ]
        }
      ],
      "stateMutability": "view"
    },
    {
      "type": "function",
      "name": "getProposal",
      "inputs": [
        {
          "name": "proposalId",
          "type": "uint256",
          "internalType": "uint256"
        }
      ],
      "outputs": [
        {
          "name": "",
          "type": "tuple",
          "internalType": "struct CompanyToken.Proposal",
          "components": [
            {
              "name": "id",
              "type": "uint256",
              "internalType": "uint256"
            },
            {
              "name": "owner",
              "type": "address",
              "internalType": "address"
            },
            {
              "name": "title",
              "type": "string",
              "internalType": "string"
            },
            {
              "name": "data",
              "type": "bytes",
              "internalType": "bytes"
            },
            {
              "name": "executed",
              "type": "bool",
              "internalType": "bool"
            },
            {
              "name": "timestamp",
              "type": "uint256",
              "internalType": "uint256"
            },
            {
              "name": "approvals",
              "type": "uint256",
              "internalType": "uint256"
            },
            {
              "name": "totalProposedDilutions",
              "type": "uint256",
              "internalType": "uint256"
            }
          ]
        }
      ],
      "stateMutability": "view"
    },
    {
      "type": "function",
      "name": "name",
      "inputs": [],
      "outputs": [
        {
          "name": "",
          "type": "string",
          "internalType": "string"
        }
      ],
      "stateMutability": "view"
    },
    {
      "type": "function",
      "name": "proposals",
      "inputs": [
        {
          "name": "",
          "type": "uint256",
          "internalType": "uint256"
        }
      ],
      "outputs": [
        {
          "name": "id",
          "type": "uint256",
          "internalType": "uint256"
        },
        {
          "name": "owner",
          "type": "address",
          "internalType": "address"
        },
        {
          "name": "title",
          "type": "string",
          "internalType": "string"
        },
        {
          "name": "data",
          "type": "bytes",
          "internalType": "bytes"
        },
        {
          "name": "executed",
          "type": "bool",
          "internalType": "bool"
        },
        {
          "name": "timestamp",
          "type": "uint256",
          "internalType": "uint256"
        },
        {
          "name": "approvals",
          "type": "uint256",
          "internalType": "uint256"
        },
        {
          "name": "totalProposedDilutions",
          "type": "uint256",
          "internalType": "uint256"
        }
      ],
      "stateMutability": "view"
    },
    {
      "type": "function",
      "name": "proposalsCount",
      "inputs": [],
      "outputs": [
        {
          "name": "",
          "type": "uint256",
          "internalType": "uint256"
        }
      ],
      "stateMutability": "view"
    },
    {
      "type": "function",
      "name": "proposedDilutions",
      "inputs": [
        {
          "name": "",
          "type": "uint256",
          "internalType": "uint256"
        },
        {
          "name": "",
          "type": "uint256",
          "internalType": "uint256"
        }
      ],
      "outputs": [
        {
          "name": "timestamp",
          "type": "uint256",
          "internalType": "uint256"
        },
        {
          "name": "from",
          "type": "address",
          "internalType": "address"
        },
        {
          "name": "to",
          "type": "address",
          "internalType": "address"
        },
        {
          "name": "amount",
          "type": "uint256",
          "internalType": "uint256"
        }
      ],
      "stateMutability": "view"
    },
    {
      "type": "function",
      "name": "revokeProposal",
      "inputs": [
        {
          "name": "proposalId",
          "type": "uint256",
          "internalType": "uint256"
        }
      ],
      "outputs": [],
      "stateMutability": "nonpayable"
    },
    {
      "type": "function",
      "name": "shareHolders",
      "inputs": [
        {
          "name": "",
          "type": "uint256",
          "internalType": "uint256"
        }
      ],
      "outputs": [
        {
          "name": "id",
          "type": "uint256",
          "internalType": "uint256"
        },
        {
          "name": "addr",
          "type": "address",
          "internalType": "address"
        },
        {
          "name": "amount",
          "type": "uint256",
          "internalType": "uint256"
        }
      ],
      "stateMutability": "view"
    },
    {
      "type": "function",
      "name": "shareHoldersCount",
      "inputs": [],
      "outputs": [
        {
          "name": "",
          "type": "uint256",
          "internalType": "uint256"
        }
      ],
      "stateMutability": "view"
    },
    {
      "type": "function",
      "name": "symbol",
      "inputs": [],
      "outputs": [
        {
          "name": "",
          "type": "string",
          "internalType": "string"
        }
      ],
      "stateMutability": "view"
    },
    {
      "type": "function",
      "name": "totalSupply",
      "inputs": [],
      "outputs": [
        {
          "name": "",
          "type": "uint256",
          "internalType": "uint256"
        }
      ],
      "stateMutability": "view"
    },
    {
      "type": "function",
      "name": "transfer",
      "inputs": [
        {
          "name": "to",
          "type": "address",
          "internalType": "address"
        },
        {
          "name": "value",
          "type": "uint256",
          "internalType": "uint256"
        }
      ],
      "outputs": [
        {
          "name": "",
          "type": "bool",
          "internalType": "bool"
        }
      ],
      "stateMutability": "nonpayable"
    },
    {
      "type": "function",
      "name": "transferFrom",
      "inputs": [
        {
          "name": "from",
          "type": "address",
          "internalType": "address"
        },
        {
          "name": "to",
          "type": "address",
          "internalType": "address"
        },
        {
          "name": "value",
          "type": "uint256",
          "internalType": "uint256"
        }
      ],
      "outputs": [
        {
          "name": "",
          "type": "bool",
          "internalType": "bool"
        }
      ],
      "stateMutability": "nonpayable"
    },
    {
      "type": "function",
      "name": "updateProposal",
      "inputs": [
        {
          "name": "proposalId",
          "type": "uint256",
          "internalType": "uint256"
        },
        {
          "name": "data",
          "type": "bytes",
          "internalType": "bytes"
        },
        {
          "name": "newShareDistribution",
          "type": "tuple[]",
          "internalType": "struct CompanyToken.Dilutions[]",
          "components": [
            {
              "name": "timestamp",
              "type": "uint256",
              "internalType": "uint256"
            },
            {
              "name": "from",
              "type": "address",
              "internalType": "address"
            },
            {
              "name": "to",
              "type": "address",
              "internalType": "address"
            },
            {
              "name": "amount",
              "type": "uint256",
              "internalType": "uint256"
            }
          ]
        }
      ],
      "outputs": [],
      "stateMutability": "nonpayable"
    },
    {
      "type": "event",
      "name": "AddProposal",
      "inputs": [
        {
          "name": "owner",
          "type": "address",
          "indexed": true,
          "internalType": "address"
        },
        {
          "name": "txIndex",
          "type": "uint256",
          "indexed": true,
          "internalType": "uint256"
        },
        {
          "name": "data",
          "type": "bytes",
          "indexed": false,
          "internalType": "bytes"
        },
        {
          "name": "totalProposedDilutions",
          "type": "uint256",
          "indexed": false,
          "internalType": "uint256"
        }
      ],
      "anonymous": false
    },
    {
      "type": "event",
      "name": "Approval",
      "inputs": [
        {
          "name": "owner",
          "type": "address",
          "indexed": true,
          "internalType": "address"
        },
        {
          "name": "spender",
          "type": "address",
          "indexed": true,
          "internalType": "address"
        },
        {
          "name": "value",
          "type": "uint256",
          "indexed": false,
          "internalType": "uint256"
        }
      ],
      "anonymous": false
    },
    {
      "type": "event",
      "name": "ApproveProposal",
      "inputs": [
        {
          "name": "owner",
          "type": "address",
          "indexed": true,
          "internalType": "address"
        },
        {
          "name": "txIndex",
          "type": "uint256",
          "indexed": true,
          "internalType": "uint256"
        }
      ],
      "anonymous": false
    },
    {
      "type": "event",
      "name": "ExecuteProposal",
      "inputs": [
        {
          "name": "owner",
          "type": "address",
          "indexed": true,
          "internalType": "address"
        },
        {
          "name": "txIndex",
          "type": "uint256",
          "indexed": true,
          "internalType": "uint256"
        }
      ],
      "anonymous": false
    },
    {
      "type": "event",
      "name": "RevokeProposal",
      "inputs": [
        {
          "name": "owner",
          "type": "address",
          "indexed": true,
          "internalType": "address"
        },
        {
          "name": "txIndex",
          "type": "uint256",
          "indexed": true,
          "internalType": "uint256"
        }
      ],
      "anonymous": false
    },
    {
      "type": "event",
      "name": "Transfer",
      "inputs": [
        {
          "name": "from",
          "type": "address",
          "indexed": true,
          "internalType": "address"
        },
        {
          "name": "to",
          "type": "address",
          "indexed": true,
          "internalType": "address"
        },
        {
          "name": "value",
          "type": "uint256",
          "indexed": false,
          "internalType": "uint256"
        }
      ],
      "anonymous": false
    },
    {
      "type": "event",
      "name": "UpdateProposal",
      "inputs": [
        {
          "name": "owner",
          "type": "address",
          "indexed": true,
          "internalType": "address"
        },
        {
          "name": "txIndex",
          "type": "uint256",
          "indexed": true,
          "internalType": "uint256"
        },
        {
          "name": "data",
          "type": "bytes",
          "indexed": false,
          "internalType": "bytes"
        },
        {
          "name": "totalProposedDilutions",
          "type": "uint256",
          "indexed": false,
          "internalType": "uint256"
        }
      ],
      "anonymous": false
    },
    {
      "type": "error",
      "name": "ERC20InsufficientAllowance",
      "inputs": [
        {
          "name": "spender",
          "type": "address",
          "internalType": "address"
        },
        {
          "name": "allowance",
          "type": "uint256",
          "internalType": "uint256"
        },
        {
          "name": "needed",
          "type": "uint256",
          "internalType": "uint256"
        }
      ]
    },
    {
      "type": "error",
      "name": "ERC20InsufficientBalance",
      "inputs": [
        {
          "name": "sender",
          "type": "address",
          "internalType": "address"
        },
        {
          "name": "balance",
          "type": "uint256",
          "internalType": "uint256"
        },
        {
          "name": "needed",
          "type": "uint256",
          "internalType": "uint256"
        }
      ]
    },
    {
      "type": "error",
      "name": "ERC20InvalidApprover",
      "inputs": [
        {
          "name": "approver",
          "type": "address",
          "internalType": "address"
        }
      ]
    },
    {
      "type": "error",
      "name": "ERC20InvalidReceiver",
      "inputs": [
        {
          "name": "receiver",
          "type": "address",
          "internalType": "address"
        }
      ]
    },
    {
      "type": "error",
      "name": "ERC20InvalidSender",
      "inputs": [
        {
          "name": "sender",
          "type": "address",
          "internalType": "address"
        }
      ]
    },
    {
      "type": "error",
      "name": "ERC20InvalidSpender",
      "inputs": [
        {
          "name": "spender",
          "type": "address",
          "internalType": "address"
        }
      ]
    }
  ],
  "bytecode": {
    "object": "0x608060405234801561001057600080fd5b5060405161290f38038061290f83398101604081905261002f91610352565b8484600361003d8382610477565b50600461004a8282610477565b5050506001600160a01b03831661009a5760405162461bcd60e51b815260206004820152600f60248201526e496e76616c6964206164647265737360881b60448201526064015b60405180910390fd5b60006100a86012600a610634565b6100b2908361064a565b90506100be8482610135565b60408051606081018252600680548083526001600160a01b039788166020808501918252848601968752600092835260059052939020915182559151600180830180546001600160a01b031916929098169190911790965591516002909201919091558054909301909255600b5550610674915050565b6001600160a01b03821661015f5760405163ec442f0560e01b815260006004820152602401610091565b61016b6000838361016f565b5050565b6001600160a01b03831661019a57806002600082825461018f9190610661565b9091555061020c9050565b6001600160a01b038316600090815260208190526040902054818110156101ed5760405163391434e360e21b81526001600160a01b03851660048201526024810182905260448101839052606401610091565b6001600160a01b03841660009081526020819052604090209082900390555b6001600160a01b03821661022857600280548290039055610247565b6001600160a01b03821660009081526020819052604090208054820190555b816001600160a01b0316836001600160a01b03167fddf252ad1be2c89b69c2b068fc378daa952ba7f163c4a11628f55a4df523b3ef8360405161028c91815260200190565b60405180910390a3505050565b634e487b7160e01b600052604160045260246000fd5b600082601f8301126102c057600080fd5b81516001600160401b038111156102d9576102d9610299565b604051601f8201601f19908116603f011681016001600160401b038111828210171561030757610307610299565b60405281815283820160200185101561031f57600080fd5b60005b8281101561033e57602081860181015183830182015201610322565b506000918101602001919091529392505050565b600080600080600060a0868803121561036a57600080fd5b85516001600160401b0381111561038057600080fd5b61038c888289016102af565b602088015190965090506001600160401b038111156103aa57600080fd5b6103b6888289016102af565b604088015190955090506001600160a01b03811681146103d557600080fd5b6060870151608090970151959894975095949392505050565b600181811c9082168061040257607f821691505b60208210810361042257634e487b7160e01b600052602260045260246000fd5b50919050565b601f82111561047257806000526020600020601f840160051c8101602085101561044f5750805b601f840160051c820191505b8181101561046f576000815560010161045b565b50505b505050565b81516001600160401b0381111561049057610490610299565b6104a48161049e84546103ee565b84610428565b6020601f8211600181146104d857600083156104c05750848201515b600019600385901b1c1916600184901b17845561046f565b600084815260208120601f198516915b8281101561050857878501518255602094850194600190920191016104e8565b50848210156105265786840151600019600387901b60f8161c191681555b50505050600190811b01905550565b634e487b7160e01b600052601160045260246000fd5b6001815b60018411156105865780850481111561056a5761056a610535565b600184161561057857908102905b60019390931c92800261054f565b935093915050565b60008261059d5750600161062e565b816105aa5750600061062e565b81600181146105c057600281146105ca576105e6565b600191505061062e565b60ff8411156105db576105db610535565b50506001821b61062e565b5060208310610133831016604e8410600b8410161715610609575081810a61062e565b610616600019848461054b565b806000190482111561062a5761062a610535565b0290505b92915050565b600061064360ff84168361058e565b9392505050565b808202811582820484141761062e5761062e610535565b8082018082111561062e5761062e610535565b61228c806106836000396000f3fe608060405234801561001057600080fd5b50600436106101a95760003560e01c8063539170b2116100f957806398951b5611610097578063c544be1f11610071578063c544be1f14610466578063c7f758a81461046f578063cceb68f51461048f578063dd62ed3e146104a457600080fd5b806398951b561461042d578063a9059cbb14610440578063b30b631f1461045357600080fd5b806379cc6790116100d357806379cc6790146103d15780638253951a146103e457806385a6a0911461041257806395d89b411461042557600080fd5b8063539170b21461033857806370a082311461034d5780637427a40c1461037657600080fd5b806318160ddd11610166578063313ce56711610140578063313ce5671461029057806342966c681461029f578063445e48fc146102b25780634cd371ed146102bb57600080fd5b806318160ddd1461025557806320e63c6b1461025d57806323b872dd1461027d57600080fd5b80630121871f146101ae578063013cf08b146101c357806306fdde03146101f3578063095ea7b3146102085780630a9f46ad1461022b5780630d61b51914610242575b600080fd5b6101c16101bc366004611970565b6104dd565b005b6101d66101d1366004611a80565b610840565b6040516101ea989796959493929190611adf565b60405180910390f35b6101fb6109a0565b6040516101ea9190611b44565b61021b610216366004611b73565b610a32565b60405190151581526020016101ea565b61023460085481565b6040519081526020016101ea565b6101c1610250366004611a80565b610a4c565b600254610234565b61027061026b366004611a80565b610bf5565b6040516101ea9190611b9f565b61021b61028b366004611c13565b610d19565b604051601281526020016101ea565b6101c16102ad366004611a80565b610d3d565b610234600b5481565b6103086102c9366004611c54565b6009602090815260009283526040808420909152908252902080546001820154600283015460039093015491926001600160a01b039182169291169084565b6040516101ea94939291909384526001600160a01b03928316602085015291166040830152606082015260800190565b610340610d4a565b6040516101ea9190611c76565b61023461035b366004611cd0565b6001600160a01b031660009081526020819052604090205490565b6103ae610384366004611a80565b60056020526000908152604090208054600182015460029092015490916001600160a01b03169083565b604080519384526001600160a01b039092166020840152908201526060016101ea565b6101c16103df366004611b73565b610e41565b61021b6103f2366004611ced565b600a60209081526000928352604080842090915290825290205460ff1681565b6101c1610420366004611a80565b610e5a565b6101fb610f25565b6101c161043b366004611a80565b610f34565b61021b61044e366004611b73565b611026565b6101c1610461366004611d1d565b611034565b61023460065481565b61048261047d366004611a80565b6111ba565b6040516101ea9190611e55565b610497611355565b6040516101ea9190611e68565b6102346104b2366004611ecd565b6001600160a01b03918216600090815260016020908152604080832093909416825291909152205490565b8961051e5760405162461bcd60e51b815260206004820152600c60248201526b496e76616c6964206461746160a01b60448201526064015b60405180910390fd5b858414801561052c57508582145b801561053757508581145b6105775760405162461bcd60e51b8152602060048201526011602482015270496e76616c69642064696c7574696f6e7360781b6044820152606401610515565b6040518061010001604052806008548152602001336001600160a01b031681526020018a8a8080601f016020809104026020016040519081016040528093929190818152602001838380828437600092019190915250505090825250604080516020601f8f018190048102820181019092528d815291810191908e908e908190840183828082843760009201829052509385525050506020808301829052426040808501919091526060840183905260809093018590526008548252600781529082902083518155908301516001820180546001600160a01b0319166001600160a01b039092169190911790559082015160028201906106779082611f93565b506060820151600382019061068c9082611f93565b50608082015160048201805460ff191691151591909117905560a0820151600582015560c0820151600682015560e09091015160079091015560005b818110156107d75760405180608001604052804281526020018787848181106106f3576106f3612051565b90506020020160208101906107089190611cd0565b6001600160a01b0316815260200189898481811061072857610728612051565b905060200201602081019061073d9190611cd0565b6001600160a01b0316815260200185858481811061075d5761075d612051565b6020908102929092013590925260085460009081526009825260408082208683528352908190208451815591840151600180840180546001600160a01b039384166001600160a01b0319918216179091559286015160028501805491909316931692909217905560609093015160039091015550016106c8565b50600880546001908101918290556107ee9161207d565b336001600160a01b03167f2870796de6253e1c899bb5708253104bb7d5bad09edb5764c9d5d3eac0e6b2438d8d8560405161082b93929190612090565b60405180910390a35050505050505050505050565b60076020526000908152604090208054600182015460028301805492936001600160a01b039092169261087290611f11565b80601f016020809104026020016040519081016040528092919081815260200182805461089e90611f11565b80156108eb5780601f106108c0576101008083540402835291602001916108eb565b820191906000526020600020905b8154815290600101906020018083116108ce57829003601f168201915b50505050509080600301805461090090611f11565b80601f016020809104026020016040519081016040528092919081815260200182805461092c90611f11565b80156109795780601f1061094e57610100808354040283529160200191610979565b820191906000526020600020905b81548152906001019060200180831161095c57829003601f168201915b50505050600483015460058401546006850154600790950154939460ff9092169390925088565b6060600380546109af90611f11565b80601f01602080910402602001604051908101604052809291908181526020018280546109db90611f11565b8015610a285780601f106109fd57610100808354040283529160200191610a28565b820191906000526020600020905b815481529060010190602001808311610a0b57829003601f168201915b5050505050905090565b600033610a40818585611570565b60019150505b92915050565b806008548110610a6e5760405162461bcd60e51b8152600401610515906120c9565b600b5460008381526007602052604090206006015483911115610aca5760405162461bcd60e51b81526020600482015260146024820152734e6f7420656e6f75676820617070726f76616c7360601b6044820152606401610515565b60008381526007602052604090206004015460ff1615610b2c5760405162461bcd60e51b815260206004820152601960248201527f50726f706f73616c20616c7265616479206578656375746564000000000000006044820152606401610515565b6000838152600760208190526040822060048101805460ff191660011790550154905b81811015610bc157600085815260096020908152604080832084845282529182902082516080810184528154815260018201546001600160a01b03908116938201849052600283015416938101849052600390910154606082018190529092610bb89291611582565b50600101610b4f565b50604051849033907fb8d301cd5f98b8a684e9fcee3fec6abc97ee218ec8794e9aed3f791e40fb465890600090a350505050565b600081815260076020819052604082200154606091906001600160401b03811115610c2257610c22611efb565b604051908082528060200260200182016040528015610c7457816020015b604080516080810182526000808252602080830182905292820181905260608201528252600019909201910181610c405790505b50905060005b60008481526007602081905260409091200154811015610d1257600084815260096020908152604080832084845282529182902082516080810184528154815260018201546001600160a01b039081169382019390935260028201549092169282019290925260039091015460608201528251839083908110610cff57610cff612051565b6020908102919091010152600101610c7a565b5092915050565b600033610d278582856115e1565b610d32858585611582565b506001949350505050565b610d47338261165f565b50565b606060006006546001600160401b03811115610d6857610d68611efb565b604051908082528060200260200182016040528015610dc657816020015b610db360405180606001604052806000815260200160006001600160a01b03168152602001600081525090565b815260200190600190039081610d865790505b50905060005b600654811015610e3b5760008181526005602090815260409182902082516060810184528154815260018201546001600160a01b03169281019290925260020154918101919091528251839083908110610e2857610e28612051565b6020908102919091010152600101610dcc565b50919050565b610e4c8233836115e1565b610e56828261165f565b5050565b806008548110610e7c5760405162461bcd60e51b8152600401610515906120c9565b6000828152600a6020908152604080832033845290915290205460ff161515600114610ed95760405162461bcd60e51b815260206004820152600c60248201526b139bdd08185c1c1c9bdd995960a21b6044820152606401610515565b6000828152600a60209081526040808320338085529252808320805460ff191690555184927fb8b1cbdd07c030bed9e01f4ee5465e3a3fd2aa8f7135c84467c0f3cf203925eb91a35050565b6060600480546109af90611f11565b806008548110610f565760405162461bcd60e51b8152600401610515906120c9565b6000828152600a6020908152604080832033845290915290205460ff1615610fb35760405162461bcd60e51b815260206004820152601060248201526f105b1c9958591e48185c1c1c9bdd995960821b6044820152606401610515565b6000828152600a602090815260408083203384528252808320805460ff1916600117905584835260079091528120600601805491610ff083612100565b9091555050604051829033907f12c8d6025943157cbcb4e904b3e3d97d2ac7eae9f61f343b2e7cb23be24bdbb790600090a35050565b600033610a40818585611582565b8460085481106110565760405162461bcd60e51b8152600401610515906120c9565b6000868152600760205260409020600101546001600160a01b031633146110bf5760405162461bcd60e51b815260206004820152601d60248201527f4e6f7420746865206f776e6572206f66207468652070726f706f73616c0000006044820152606401610515565b836110fb5760405162461bcd60e51b815260206004820152600c60248201526b496e76616c6964206461746160a01b6044820152606401610515565b6000868152600760205260409020600301611117858783612119565b5060005b828110156111715783838281811061113557611135612051565b6008546000908152600960209081526040808320878452909152902060809091029290920191905061116782826121f8565b505060010161111b565b50604051869033907f94dd2c5aa152df4ccb2b1cce8182b3a247ff69fc884e41b747e7c891f6215c37906111aa90899089908890612090565b60405180910390a3505050505050565b6111c2611894565b6000828152600760209081526040918290208251610100810184528154815260018201546001600160a01b031692810192909252600281018054929391929184019161120d90611f11565b80601f016020809104026020016040519081016040528092919081815260200182805461123990611f11565b80156112865780601f1061125b57610100808354040283529160200191611286565b820191906000526020600020905b81548152906001019060200180831161126957829003601f168201915b5050505050815260200160038201805461129f90611f11565b80601f01602080910402602001604051908101604052809291908181526020018280546112cb90611f11565b80156113185780601f106112ed57610100808354040283529160200191611318565b820191906000526020600020905b8154815290600101906020018083116112fb57829003601f168201915b5050509183525050600482015460ff1615156020820152600582015460408201526006820154606082015260079091015460809091015292915050565b606060006008546001600160401b0381111561137357611373611efb565b6040519080825280602002602001820160405280156113ac57816020015b611399611894565b8152602001906001900390816113915790505b50905060005b600854811015610e3b576000818152600760209081526040918290208251610100810184528154815260018201546001600160a01b031692810192909252600281018054929391929184019161140790611f11565b80601f016020809104026020016040519081016040528092919081815260200182805461143390611f11565b80156114805780601f1061145557610100808354040283529160200191611480565b820191906000526020600020905b81548152906001019060200180831161146357829003601f168201915b5050505050815260200160038201805461149990611f11565b80601f01602080910402602001604051908101604052809291908181526020018280546114c590611f11565b80156115125780601f106114e757610100808354040283529160200191611512565b820191906000526020600020905b8154815290600101906020018083116114f557829003601f168201915b5050509183525050600482015460ff16151560208201526005820154604082015260068201546060820152600790910154608090910152825183908390811061155d5761155d612051565b60209081029190910101526001016113b2565b61157d8383836001611695565b505050565b6001600160a01b0383166115ac57604051634b637e8f60e11b815260006004820152602401610515565b6001600160a01b0382166115d65760405163ec442f0560e01b815260006004820152602401610515565b61157d83838361176a565b6001600160a01b038381166000908152600160209081526040808320938616835292905220546000198114611659578181101561164a57604051637dc7a0d960e11b81526001600160a01b03841660048201526024810182905260448101839052606401610515565b61165984848484036000611695565b50505050565b6001600160a01b03821661168957604051634b637e8f60e11b815260006004820152602401610515565b610e568260008361176a565b6001600160a01b0384166116bf5760405163e602df0560e01b815260006004820152602401610515565b6001600160a01b0383166116e957604051634a1406b160e11b815260006004820152602401610515565b6001600160a01b038085166000908152600160209081526040808320938716835292905220829055801561165957826001600160a01b0316846001600160a01b03167f8c5be1e5ebec7d5bd14f71427d1e84f3dd0314c0f7b2291e5b200ac8c7c3b9258460405161175c91815260200190565b60405180910390a350505050565b6001600160a01b03831661179557806002600082825461178a9190612243565b909155506118079050565b6001600160a01b038316600090815260208190526040902054818110156117e85760405163391434e360e21b81526001600160a01b03851660048201526024810182905260448101839052606401610515565b6001600160a01b03841660009081526020819052604090209082900390555b6001600160a01b03821661182357600280548290039055611842565b6001600160a01b03821660009081526020819052604090208054820190555b816001600160a01b0316836001600160a01b03167fddf252ad1be2c89b69c2b068fc378daa952ba7f163c4a11628f55a4df523b3ef8360405161188791815260200190565b60405180910390a3505050565b6040518061010001604052806000815260200160006001600160a01b0316815260200160608152602001606081526020016000151581526020016000815260200160008152602001600081525090565b60008083601f8401126118f657600080fd5b5081356001600160401b0381111561190d57600080fd5b60208301915083602082850101111561192557600080fd5b9250929050565b60008083601f84011261193e57600080fd5b5081356001600160401b0381111561195557600080fd5b6020830191508360208260051b850101111561192557600080fd5b600080600080600080600080600080600060c08c8e03121561199157600080fd5b8b356001600160401b038111156119a757600080fd5b6119b38e828f016118e4565b909c509a505060208c01356001600160401b038111156119d257600080fd5b6119de8e828f016118e4565b909a5098505060408c01356001600160401b038111156119fd57600080fd5b611a098e828f0161192c565b90985096505060608c01356001600160401b03811115611a2857600080fd5b611a348e828f0161192c565b90965094505060808c01356001600160401b03811115611a5357600080fd5b611a5f8e828f0161192c565b9c9f9b9e50999c989b979a969995989497959660a090950135949350505050565b600060208284031215611a9257600080fd5b5035919050565b6000815180845260005b81811015611abf57602081850181015186830182015201611aa3565b506000602082860101526020601f19601f83011685010191505092915050565b8881526001600160a01b038816602082015261010060408201819052600090611b0a90830189611a99565b8281036060840152611b1c8189611a99565b9615156080840152505060a081019390935260c083019190915260e090910152949350505050565b602081526000611b576020830184611a99565b9392505050565b6001600160a01b0381168114610d4757600080fd5b60008060408385031215611b8657600080fd5b8235611b9181611b5e565b946020939093013593505050565b602080825282518282018190526000918401906040840190835b81811015611c08578351805184526020808201516001600160a01b0390811682870152604080840151909116908601526060918201519185019190915290930192608090920191600101611bb9565b509095945050505050565b600080600060608486031215611c2857600080fd5b8335611c3381611b5e565b92506020840135611c4381611b5e565b929592945050506040919091013590565b60008060408385031215611c6757600080fd5b50508035926020909101359150565b602080825282518282018190526000918401906040840190835b81811015611c08578351805184526020808201516001600160a01b0316818601526040918201519185019190915290930192606090920191600101611c90565b600060208284031215611ce257600080fd5b8135611b5781611b5e565b60008060408385031215611d0057600080fd5b823591506020830135611d1281611b5e565b809150509250929050565b600080600080600060608688031215611d3557600080fd5b8535945060208601356001600160401b03811115611d5257600080fd5b611d5e888289016118e4565b90955093505060408601356001600160401b03811115611d7d57600080fd5b8601601f81018813611d8e57600080fd5b80356001600160401b03811115611da457600080fd5b8860208260071b8401011115611db957600080fd5b959894975092955050506020019190565b8051825260018060a01b036020820151166020830152600060408201516101006040850152611dfd610100850182611a99565b905060608301518482036060860152611e168282611a99565b9150506080830151611e2c608086018215159052565b5060a083015160a085015260c083015160c085015260e083015160e08501528091505092915050565b602081526000611b576020830184611dca565b6000602082016020835280845180835260408501915060408160051b86010192506020860160005b82811015611ec157603f19878603018452611eac858351611dca565b94506020938401939190910190600101611e90565b50929695505050505050565b60008060408385031215611ee057600080fd5b8235611eeb81611b5e565b91506020830135611d1281611b5e565b634e487b7160e01b600052604160045260246000fd5b600181811c90821680611f2557607f821691505b602082108103610e3b57634e487b7160e01b600052602260045260246000fd5b601f82111561157d57806000526020600020601f840160051c81016020851015611f6c5750805b601f840160051c820191505b81811015611f8c5760008155600101611f78565b5050505050565b81516001600160401b03811115611fac57611fac611efb565b611fc081611fba8454611f11565b84611f45565b6020601f821160018114611ff45760008315611fdc5750848201515b600019600385901b1c1916600184901b178455611f8c565b600084815260208120601f198516915b828110156120245787850151825560209485019460019092019101612004565b50848210156120425786840151600019600387901b60f8161c191681555b50505050600190811b01905550565b634e487b7160e01b600052603260045260246000fd5b634e487b7160e01b600052601160045260246000fd5b81810381811115610a4657610a46612067565b604081528260408201528284606083013760006060848301015260006060601f19601f8601168301019050826020830152949350505050565b60208082526017908201527f70726f706f73616c20646f6573206e6f74206578697374000000000000000000604082015260600190565b60006001820161211257612112612067565b5060010190565b6001600160401b0383111561213057612130611efb565b6121448361213e8354611f11565b83611f45565b6000601f84116001811461217857600085156121605750838201355b600019600387901b1c1916600186901b178355611f8c565b600083815260209020601f19861690835b828110156121a95786850135825560209485019460019092019101612189565b50868210156121c65760001960f88860031b161c19848701351681555b505060018560011b0183555050505050565b80546001600160a01b0319166001600160a01b0392909216919091179055565b81358155602082013561220a81611b5e565b61221781600184016121d8565b50604082013561222681611b5e565b61223381600284016121d8565b5060609190910135600390910155565b80820180821115610a4657610a4661206756fea26469706673582212202007776b01166d46f175fe35abcb803d757706e1486d3b94d28c1bb820ff314864736f6c634300081a0033",
    "linkReferences": {}
  },
  "methodIdentifiers": {
    "MIN_REQUIRED()": "445e48fc",
    "addProposal(bytes,string,address[],address[],uint256[],uint256)": "0121871f",
    "allowance(address,address)": "dd62ed3e",
    "approve(address,uint256)": "095ea7b3",
    "approveProposal(uint256)": "98951b56",
    "approved(uint256,address)": "8253951a",
    "balanceOf(address)": "70a08231",
    "burn(uint256)": "42966c68",
    "burnFrom(address,uint256)": "79cc6790",
    "decimals()": "313ce567",
    "executeProposal(uint256)": "0d61b519",
    "getAllProposals()": "cceb68f5",
    "getAllShareHolders()": "539170b2",
    "getDilutionsForProposal(uint256)": "20e63c6b",
    "getProposal(uint256)": "c7f758a8",
    "name()": "06fdde03",
    "proposals(uint256)": "013cf08b",
    "proposalsCount()": "0a9f46ad",
    "proposedDilutions(uint256,uint256)": "4cd371ed",
    "revokeProposal(uint256)": "85a6a091",
    "shareHolders(uint256)": "7427a40c",
    "shareHoldersCount()": "c544be1f",
    "symbol()": "95d89b41",
    "totalSupply()": "18160ddd",
    "transfer(address,uint256)": "a9059cbb",
    "transferFrom(address,address,uint256)": "23b872dd",
    "updateProposal(uint256,bytes,(uint256,address,address,uint256)[])": "b30b631f"
  },
  "id": 6
}