{"abi":[{"type":"constructor","inputs":[{"name":"_name","type":"string","internalType":"string"},{"name":"_symbol","type":"string","internalType":"string"},{"name":"_initialShareHolder","type":"address","internalType":"address"},{"name":"_minRequired","type":"uint256","internalType":"uint256"}],"stateMutability":"nonpayable"},{"type":"function","name":"MIN_REQUIRED","inputs":[],"outputs":[{"name":"","type":"uint256","internalType":"uint256"}],"stateMutability":"view"},{"type":"function","name":"addProposal","inputs":[{"name":"data","type":"bytes","internalType":"bytes"},{"name":"dilutionsTO","type":"address[]","internalType":"address[]"},{"name":"dilutionsFROM","type":"address[]","internalType":"address[]"},{"name":"dilutionsAMOUNT","type":"uint256[]","internalType":"uint256[]"},{"name":"totalProposedDilutions","type":"uint256","internalType":"uint256"}],"outputs":[],"stateMutability":"nonpayable"},{"type":"function","name":"allowance","inputs":[{"name":"owner","type":"address","internalType":"address"},{"name":"spender","type":"address","internalType":"address"}],"outputs":[{"name":"","type":"uint256","internalType":"uint256"}],"stateMutability":"view"},{"type":"function","name":"approve","inputs":[{"name":"spender","type":"address","internalType":"address"},{"name":"value","type":"uint256","internalType":"uint256"}],"outputs":[{"name":"","type":"bool","internalType":"bool"}],"stateMutability":"nonpayable"},{"type":"function","name":"approveProposal","inputs":[{"name":"proposalId","type":"uint256","internalType":"uint256"}],"outputs":[],"stateMutability":"nonpayable"},{"type":"function","name":"approved","inputs":[{"name":"","type":"uint256","internalType":"uint256"},{"name":"","type":"address","internalType":"address"}],"outputs":[{"name":"","type":"bool","internalType":"bool"}],"stateMutability":"view"},{"type":"function","name":"balanceOf","inputs":[{"name":"account","type":"address","internalType":"address"}],"outputs":[{"name":"","type":"uint256","internalType":"uint256"}],"stateMutability":"view"},{"type":"function","name":"burn","inputs":[{"name":"value","type":"uint256","internalType":"uint256"}],"outputs":[],"stateMutability":"nonpayable"},{"type":"function","name":"burnFrom","inputs":[{"name":"account","type":"address","internalType":"address"},{"name":"value","type":"uint256","internalType":"uint256"}],"outputs":[],"stateMutability":"nonpayable"},{"type":"function","name":"decimals","inputs":[],"outputs":[{"name":"","type":"uint8","internalType":"uint8"}],"stateMutability":"view"},{"type":"function","name":"executeProposal","inputs":[{"name":"proposalId","type":"uint256","internalType":"uint256"}],"outputs":[],"stateMutability":"nonpayable"},{"type":"function","name":"getAllProposals","inputs":[],"outputs":[{"name":"","type":"tuple[]","internalType":"struct CompanyToken.Proposal[]","components":[{"name":"owner","type":"address","internalType":"address"},{"name":"data","type":"bytes","internalType":"bytes"},{"name":"executed","type":"bool","internalType":"bool"},{"name":"timestamp","type":"uint256","internalType":"uint256"},{"name":"approvals","type":"uint256","internalType":"uint256"},{"name":"totalProposedDilutions","type":"uint256","internalType":"uint256"}]}],"stateMutability":"view"},{"type":"function","name":"getAllShareHolders","inputs":[],"outputs":[{"name":"","type":"tuple[]","internalType":"struct CompanyToken.ShareHolder[]","components":[{"name":"id","type":"uint256","internalType":"uint256"},{"name":"addr","type":"address","internalType":"address"},{"name":"amount","type":"uint256","internalType":"uint256"}]}],"stateMutability":"view"},{"type":"function","name":"getProposal","inputs":[{"name":"proposalId","type":"uint256","internalType":"uint256"}],"outputs":[{"name":"","type":"tuple","internalType":"struct CompanyToken.Proposal","components":[{"name":"owner","type":"address","internalType":"address"},{"name":"data","type":"bytes","internalType":"bytes"},{"name":"executed","type":"bool","internalType":"bool"},{"name":"timestamp","type":"uint256","internalType":"uint256"},{"name":"approvals","type":"uint256","internalType":"uint256"},{"name":"totalProposedDilutions","type":"uint256","internalType":"uint256"}]}],"stateMutability":"view"},{"type":"function","name":"name","inputs":[],"outputs":[{"name":"","type":"string","internalType":"string"}],"stateMutability":"view"},{"type":"function","name":"proposals","inputs":[{"name":"","type":"uint256","internalType":"uint256"}],"outputs":[{"name":"owner","type":"address","internalType":"address"},{"name":"data","type":"bytes","internalType":"bytes"},{"name":"executed","type":"bool","internalType":"bool"},{"name":"timestamp","type":"uint256","internalType":"uint256"},{"name":"approvals","type":"uint256","internalType":"uint256"},{"name":"totalProposedDilutions","type":"uint256","internalType":"uint256"}],"stateMutability":"view"},{"type":"function","name":"proposalsCount","inputs":[],"outputs":[{"name":"","type":"uint256","internalType":"uint256"}],"stateMutability":"view"},{"type":"function","name":"proposedDilutions","inputs":[{"name":"","type":"uint256","internalType":"uint256"},{"name":"","type":"uint256","internalType":"uint256"}],"outputs":[{"name":"timestamp","type":"uint256","internalType":"uint256"},{"name":"from","type":"address","internalType":"address"},{"name":"to","type":"address","internalType":"address"},{"name":"amount","type":"uint256","internalType":"uint256"}],"stateMutability":"view"},{"type":"function","name":"revokeProposal","inputs":[{"name":"proposalId","type":"uint256","internalType":"uint256"}],"outputs":[],"stateMutability":"nonpayable"},{"type":"function","name":"shareHolders","inputs":[{"name":"","type":"uint256","internalType":"uint256"}],"outputs":[{"name":"id","type":"uint256","internalType":"uint256"},{"name":"addr","type":"address","internalType":"address"},{"name":"amount","type":"uint256","internalType":"uint256"}],"stateMutability":"view"},{"type":"function","name":"shareHoldersCount","inputs":[],"outputs":[{"name":"","type":"uint256","internalType":"uint256"}],"stateMutability":"view"},{"type":"function","name":"symbol","inputs":[],"outputs":[{"name":"","type":"string","internalType":"string"}],"stateMutability":"view"},{"type":"function","name":"totalSupply","inputs":[],"outputs":[{"name":"","type":"uint256","internalType":"uint256"}],"stateMutability":"view"},{"type":"function","name":"transfer","inputs":[{"name":"to","type":"address","internalType":"address"},{"name":"value","type":"uint256","internalType":"uint256"}],"outputs":[{"name":"","type":"bool","internalType":"bool"}],"stateMutability":"nonpayable"},{"type":"function","name":"transferFrom","inputs":[{"name":"from","type":"address","internalType":"address"},{"name":"to","type":"address","internalType":"address"},{"name":"value","type":"uint256","internalType":"uint256"}],"outputs":[{"name":"","type":"bool","internalType":"bool"}],"stateMutability":"nonpayable"},{"type":"function","name":"updateProposal","inputs":[{"name":"proposalId","type":"uint256","internalType":"uint256"},{"name":"data","type":"bytes","internalType":"bytes"},{"name":"newShareDistribution","type":"tuple[]","internalType":"struct CompanyToken.Dilutions[]","components":[{"name":"timestamp","type":"uint256","internalType":"uint256"},{"name":"from","type":"address","internalType":"address"},{"name":"to","type":"address","internalType":"address"},{"name":"amount","type":"uint256","internalType":"uint256"}]}],"outputs":[],"stateMutability":"nonpayable"},{"type":"event","name":"AddProposal","inputs":[{"name":"owner","type":"address","indexed":true,"internalType":"address"},{"name":"txIndex","type":"uint256","indexed":true,"internalType":"uint256"},{"name":"data","type":"bytes","indexed":false,"internalType":"bytes"},{"name":"totalProposedDilutions","type":"uint256","indexed":false,"internalType":"uint256"}],"anonymous":false},{"type":"event","name":"Approval","inputs":[{"name":"owner","type":"address","indexed":true,"internalType":"address"},{"name":"spender","type":"address","indexed":true,"internalType":"address"},{"name":"value","type":"uint256","indexed":false,"internalType":"uint256"}],"anonymous":false},{"type":"event","name":"ApproveProposal","inputs":[{"name":"owner","type":"address","indexed":true,"internalType":"address"},{"name":"txIndex","type":"uint256","indexed":true,"internalType":"uint256"}],"anonymous":false},{"type":"event","name":"ExecuteProposal","inputs":[{"name":"owner","type":"address","indexed":true,"internalType":"address"},{"name":"txIndex","type":"uint256","indexed":true,"internalType":"uint256"}],"anonymous":false},{"type":"event","name":"RevokeProposal","inputs":[{"name":"owner","type":"address","indexed":true,"internalType":"address"},{"name":"txIndex","type":"uint256","indexed":true,"internalType":"uint256"}],"anonymous":false},{"type":"event","name":"Transfer","inputs":[{"name":"from","type":"address","indexed":true,"internalType":"address"},{"name":"to","type":"address","indexed":true,"internalType":"address"},{"name":"value","type":"uint256","indexed":false,"internalType":"uint256"}],"anonymous":false},{"type":"event","name":"UpdateProposal","inputs":[{"name":"owner","type":"address","indexed":true,"internalType":"address"},{"name":"txIndex","type":"uint256","indexed":true,"internalType":"uint256"},{"name":"data","type":"bytes","indexed":false,"internalType":"bytes"},{"name":"totalProposedDilutions","type":"uint256","indexed":false,"internalType":"uint256"}],"anonymous":false},{"type":"error","name":"ERC20InsufficientAllowance","inputs":[{"name":"spender","type":"address","internalType":"address"},{"name":"allowance","type":"uint256","internalType":"uint256"},{"name":"needed","type":"uint256","internalType":"uint256"}]},{"type":"error","name":"ERC20InsufficientBalance","inputs":[{"name":"sender","type":"address","internalType":"address"},{"name":"balance","type":"uint256","internalType":"uint256"},{"name":"needed","type":"uint256","internalType":"uint256"}]},{"type":"error","name":"ERC20InvalidApprover","inputs":[{"name":"approver","type":"address","internalType":"address"}]},{"type":"error","name":"ERC20InvalidReceiver","inputs":[{"name":"receiver","type":"address","internalType":"address"}]},{"type":"error","name":"ERC20InvalidSender","inputs":[{"name":"sender","type":"address","internalType":"address"}]},{"type":"error","name":"ERC20InvalidSpender","inputs":[{"name":"spender","type":"address","internalType":"address"}]}],"bytecode":{"object":"0x608060405234801561001057600080fd5b5060405161246e38038061246e83398101604081905261002f91610352565b8383600361003d838261046c565b50600461004a828261046c565b5050506001600160a01b03821661009a5760405162461bcd60e51b815260206004820152600f60248201526e496e76616c6964206164647265737360881b60448201526064015b60405180910390fd5b60006100a86012600a610629565b6100b390606461063f565b90506100bf8382610135565b60408051606081018252600680548083526001600160a01b039687166020808501918252848601968752600092835260059052939020915182559151600180830180546001600160a01b031916929097169190911790955591516002909201919091558054909201909155600b55506106699050565b6001600160a01b03821661015f5760405163ec442f0560e01b815260006004820152602401610091565b61016b6000838361016f565b5050565b6001600160a01b03831661019a57806002600082825461018f9190610656565b9091555061020c9050565b6001600160a01b038316600090815260208190526040902054818110156101ed5760405163391434e360e21b81526001600160a01b03851660048201526024810182905260448101839052606401610091565b6001600160a01b03841660009081526020819052604090209082900390555b6001600160a01b03821661022857600280548290039055610247565b6001600160a01b03821660009081526020819052604090208054820190555b816001600160a01b0316836001600160a01b03167fddf252ad1be2c89b69c2b068fc378daa952ba7f163c4a11628f55a4df523b3ef8360405161028c91815260200190565b60405180910390a3505050565b634e487b7160e01b600052604160045260246000fd5b600082601f8301126102c057600080fd5b81516001600160401b038111156102d9576102d9610299565b604051601f8201601f19908116603f011681016001600160401b038111828210171561030757610307610299565b60405281815283820160200185101561031f57600080fd5b60005b8281101561033e57602081860181015183830182015201610322565b506000918101602001919091529392505050565b6000806000806080858703121561036857600080fd5b84516001600160401b0381111561037e57600080fd5b61038a878288016102af565b602087015190955090506001600160401b038111156103a857600080fd5b6103b4878288016102af565b604087015190945090506001600160a01b03811681146103d357600080fd5b6060959095015193969295505050565b600181811c908216806103f757607f821691505b60208210810361041757634e487b7160e01b600052602260045260246000fd5b50919050565b601f82111561046757806000526020600020601f840160051c810160208510156104445750805b601f840160051c820191505b818110156104645760008155600101610450565b50505b505050565b81516001600160401b0381111561048557610485610299565b6104998161049384546103e3565b8461041d565b6020601f8211600181146104cd57600083156104b55750848201515b600019600385901b1c1916600184901b178455610464565b600084815260208120601f198516915b828110156104fd57878501518255602094850194600190920191016104dd565b508482101561051b5786840151600019600387901b60f8161c191681555b50505050600190811b01905550565b634e487b7160e01b600052601160045260246000fd5b6001815b600184111561057b5780850481111561055f5761055f61052a565b600184161561056d57908102905b60019390931c928002610544565b935093915050565b60008261059257506001610623565b8161059f57506000610623565b81600181146105b557600281146105bf576105db565b6001915050610623565b60ff8411156105d0576105d061052a565b50506001821b610623565b5060208310610133831016604e8410600b84101617156105fe575081810a610623565b61060b6000198484610540565b806000190482111561061f5761061f61052a565b0290505b92915050565b600061063860ff841683610583565b9392505050565b80820281158282048414176106235761062361052a565b808201808211156106235761062361052a565b611df6806106786000396000f3fe608060405234801561001057600080fd5b506004361061018e5760003560e01c806370a08231116100de57806398951b5611610097578063c544be1f11610071578063c544be1f14610429578063c7f758a814610432578063cceb68f514610452578063dd62ed3e1461046757600080fd5b806398951b56146103f0578063a9059cbb14610403578063b30b631f1461041657600080fd5b806370a08231146103105780637427a40c1461033957806379cc6790146103945780638253951a146103a757806385a6a091146103d557806395d89b41146103e857600080fd5b806323b872dd1161014b578063445e48fc11610125578063445e48fc146102625780634cd371ed1461026b57806352c19b17146102e8578063539170b2146102fb57600080fd5b806323b872dd1461022d578063313ce5671461024057806342966c681461024f57600080fd5b8063013cf08b1461019357806306fdde03146101c1578063095ea7b3146101d65780630a9f46ad146101f95780630d61b5191461021057806318160ddd14610225575b600080fd5b6101a66101a1366004611536565b6104a0565b6040516101b896959493929190611595565b60405180910390f35b6101c961056c565b6040516101b891906115de565b6101e96101e436600461160d565b6105fe565b60405190151581526020016101b8565b61020260085481565b6040519081526020016101b8565b61022361021e366004611536565b610618565b005b600254610202565b6101e961023b366004611639565b6107ca565b604051601281526020016101b8565b61022361025d366004611536565b6107ee565b610202600b5481565b6102b861027936600461167a565b6009602090815260009283526040808420909152908252902080546001820154600283015460039093015491926001600160a01b039182169291169084565b6040516101b894939291909384526001600160a01b03928316602085015291166040830152606082015260800190565b6102236102f6366004611728565b6107fb565b610303610af0565b6040516101b89190611803565b61020261031e366004611868565b6001600160a01b031660009081526020819052604090205490565b610371610347366004611536565b60056020526000908152604090208054600182015460029092015490916001600160a01b03169083565b604080519384526001600160a01b039092166020840152908201526060016101b8565b6102236103a236600461160d565b610be7565b6101e96103b5366004611885565b600a60209081526000928352604080842090915290825290205460ff1681565b6102236103e3366004611536565b610c00565b6101c9610ccb565b6102236103fe366004611536565b610cda565b6101e961041136600461160d565b610dcc565b6102236104243660046118b5565b610dda565b61020260065481565b610445610440366004611536565b610f5d565b6040516101b891906119bf565b61045a611057565b6040516101b891906119d2565b610202610475366004611a37565b6001600160a01b03918216600090815260016020908152604080832093909416825291909152205490565b600760205260009081526040902080546001820180546001600160a01b0390921692916104cc90611a65565b80601f01602080910402602001604051908101604052809291908181526020018280546104f890611a65565b80156105455780601f1061051a57610100808354040283529160200191610545565b820191906000526020600020905b81548152906001019060200180831161052857829003601f168201915b50505050600283015460038401546004850154600590950154939460ff9092169390925086565b60606003805461057b90611a65565b80601f01602080910402602001604051908101604052809291908181526020018280546105a790611a65565b80156105f45780601f106105c9576101008083540402835291602001916105f4565b820191906000526020600020905b8154815290600101906020018083116105d757829003601f168201915b5050505050905090565b60003361060c8185856111d1565b60019150505b92915050565b8060085481106106435760405162461bcd60e51b815260040161063a90611a99565b60405180910390fd5b600b546000838152600760205260409020600401548391111561069f5760405162461bcd60e51b81526020600482015260146024820152734e6f7420656e6f75676820617070726f76616c7360601b604482015260640161063a565b60008381526007602052604090206002015460ff16156107015760405162461bcd60e51b815260206004820152601960248201527f50726f706f73616c20616c726561647920657865637574656400000000000000604482015260640161063a565b600083815260076020526040812060028101805460ff1916600117905560050154905b8181101561079657600085815260096020908152604080832084845282529182902082516080810184528154815260018201546001600160a01b0390811693820184905260028301541693810184905260039091015460608201819052909261078d92916111e3565b50600101610724565b50604051849033907fb8d301cd5f98b8a684e9fcee3fec6abc97ee218ec8794e9aed3f791e40fb465890600090a350505050565b6000336107d8858285611242565b6107e38585856111e3565b506001949350505050565b6107f833826112c0565b50565b876108375760405162461bcd60e51b815260206004820152600c60248201526b496e76616c6964206461746160a01b604482015260640161063a565b858414801561084557508582145b801561085057508581145b6108905760405162461bcd60e51b8152602060048201526011602482015270496e76616c69642064696c7574696f6e7360781b604482015260640161063a565b6040518060c00160405280336001600160a01b031681526020018a8a8080601f0160208091040260200160405190810160405280939291908181526020018383808284376000920182905250938552505050602080830182905242604080850191909152606084018390526080909301859052600854825260078152919020825181546001600160a01b0319166001600160a01b0390911617815590820151600182019061093e9082611b34565b50604082015160028201805460ff1916911515919091179055606082015160038201556080820151600482015560a09091015160059091015560005b81811015610a895760405180608001604052804281526020018787848181106109a5576109a5611bf2565b90506020020160208101906109ba9190611868565b6001600160a01b031681526020018989848181106109da576109da611bf2565b90506020020160208101906109ef9190611868565b6001600160a01b03168152602001858584818110610a0f57610a0f611bf2565b6020908102929092013590925260085460009081526009825260408082208683528352908190208451815591840151600180840180546001600160a01b039384166001600160a01b03199182161790915592860151600285018054919093169316929092179055606090930151600390910155500161097a565b5060088054600190810191829055610aa091611c1e565b336001600160a01b03167f2870796de6253e1c899bb5708253104bb7d5bad09edb5764c9d5d3eac0e6b2438b8b85604051610add93929190611c31565b60405180910390a3505050505050505050565b606060006006546001600160401b03811115610b0e57610b0e611ad0565b604051908082528060200260200182016040528015610b6c57816020015b610b5960405180606001604052806000815260200160006001600160a01b03168152602001600081525090565b815260200190600190039081610b2c5790505b50905060005b600654811015610be15760008181526005602090815260409182902082516060810184528154815260018201546001600160a01b03169281019290925260020154918101919091528251839083908110610bce57610bce611bf2565b6020908102919091010152600101610b72565b50919050565b610bf2823383611242565b610bfc82826112c0565b5050565b806008548110610c225760405162461bcd60e51b815260040161063a90611a99565b6000828152600a6020908152604080832033845290915290205460ff161515600114610c7f5760405162461bcd60e51b815260206004820152600c60248201526b139bdd08185c1c1c9bdd995960a21b604482015260640161063a565b6000828152600a60209081526040808320338085529252808320805460ff191690555184927fb8b1cbdd07c030bed9e01f4ee5465e3a3fd2aa8f7135c84467c0f3cf203925eb91a35050565b60606004805461057b90611a65565b806008548110610cfc5760405162461bcd60e51b815260040161063a90611a99565b6000828152600a6020908152604080832033845290915290205460ff1615610d595760405162461bcd60e51b815260206004820152601060248201526f105b1c9958591e48185c1c1c9bdd995960821b604482015260640161063a565b6000828152600a602090815260408083203384528252808320805460ff1916600117905584835260079091528120600401805491610d9683611c6a565b9091555050604051829033907f12c8d6025943157cbcb4e904b3e3d97d2ac7eae9f61f343b2e7cb23be24bdbb790600090a35050565b60003361060c8185856111e3565b846008548110610dfc5760405162461bcd60e51b815260040161063a90611a99565b6000868152600760205260409020546001600160a01b03163314610e625760405162461bcd60e51b815260206004820152601d60248201527f4e6f7420746865206f776e6572206f66207468652070726f706f73616c000000604482015260640161063a565b83610e9e5760405162461bcd60e51b815260206004820152600c60248201526b496e76616c6964206461746160a01b604482015260640161063a565b6000868152600760205260409020600101610eba858783611c83565b5060005b82811015610f1457838382818110610ed857610ed8611bf2565b60085460009081526009602090815260408083208784529091529020608090910292909201919050610f0a8282611d62565b5050600101610ebe565b50604051869033907f94dd2c5aa152df4ccb2b1cce8182b3a247ff69fc884e41b747e7c891f6215c3790610f4d90899089908890611c31565b60405180910390a3505050505050565b610f656114f5565b600082815260076020908152604091829020825160c0810190935280546001600160a01b031683526001810180549192840191610fa190611a65565b80601f0160208091040260200160405190810160405280929190818152602001828054610fcd90611a65565b801561101a5780601f10610fef5761010080835404028352916020019161101a565b820191906000526020600020905b815481529060010190602001808311610ffd57829003601f168201915b5050509183525050600282015460ff1615156020820152600382015460408201526004820154606082015260059091015460809091015292915050565b606060006008546001600160401b0381111561107557611075611ad0565b6040519080825280602002602001820160405280156110ae57816020015b61109b6114f5565b8152602001906001900390816110935790505b50905060005b600854811015610be157600081815260076020908152604091829020825160c0810190935280546001600160a01b0316835260018101805491928401916110fa90611a65565b80601f016020809104026020016040519081016040528092919081815260200182805461112690611a65565b80156111735780601f1061114857610100808354040283529160200191611173565b820191906000526020600020905b81548152906001019060200180831161115657829003601f168201915b5050509183525050600282015460ff1615156020820152600382015460408201526004820154606082015260059091015460809091015282518390839081106111be576111be611bf2565b60209081029190910101526001016110b4565b6111de83838360016112f6565b505050565b6001600160a01b03831661120d57604051634b637e8f60e11b81526000600482015260240161063a565b6001600160a01b0382166112375760405163ec442f0560e01b81526000600482015260240161063a565b6111de8383836113cb565b6001600160a01b0383811660009081526001602090815260408083209386168352929052205460001981146112ba57818110156112ab57604051637dc7a0d960e11b81526001600160a01b0384166004820152602481018290526044810183905260640161063a565b6112ba848484840360006112f6565b50505050565b6001600160a01b0382166112ea57604051634b637e8f60e11b81526000600482015260240161063a565b610bfc826000836113cb565b6001600160a01b0384166113205760405163e602df0560e01b81526000600482015260240161063a565b6001600160a01b03831661134a57604051634a1406b160e11b81526000600482015260240161063a565b6001600160a01b03808516600090815260016020908152604080832093871683529290522082905580156112ba57826001600160a01b0316846001600160a01b03167f8c5be1e5ebec7d5bd14f71427d1e84f3dd0314c0f7b2291e5b200ac8c7c3b925846040516113bd91815260200190565b60405180910390a350505050565b6001600160a01b0383166113f65780600260008282546113eb9190611dad565b909155506114689050565b6001600160a01b038316600090815260208190526040902054818110156114495760405163391434e360e21b81526001600160a01b0385166004820152602481018290526044810183905260640161063a565b6001600160a01b03841660009081526020819052604090209082900390555b6001600160a01b038216611484576002805482900390556114a3565b6001600160a01b03821660009081526020819052604090208054820190555b816001600160a01b0316836001600160a01b03167fddf252ad1be2c89b69c2b068fc378daa952ba7f163c4a11628f55a4df523b3ef836040516114e891815260200190565b60405180910390a3505050565b6040518060c0016040528060006001600160a01b03168152602001606081526020016000151581526020016000815260200160008152602001600081525090565b60006020828403121561154857600080fd5b5035919050565b6000815180845260005b8181101561157557602081850181015186830182015201611559565b506000602082860101526020601f19601f83011685010191505092915050565b6001600160a01b038716815260c0602082018190526000906115b99083018861154f565b9515156040830152506060810193909352608083019190915260a09091015292915050565b6020815260006115f1602083018461154f565b9392505050565b6001600160a01b03811681146107f857600080fd5b6000806040838503121561162057600080fd5b823561162b816115f8565b946020939093013593505050565b60008060006060848603121561164e57600080fd5b8335611659816115f8565b92506020840135611669816115f8565b929592945050506040919091013590565b6000806040838503121561168d57600080fd5b50508035926020909101359150565b60008083601f8401126116ae57600080fd5b5081356001600160401b038111156116c557600080fd5b6020830191508360208285010111156116dd57600080fd5b9250929050565b60008083601f8401126116f657600080fd5b5081356001600160401b0381111561170d57600080fd5b6020830191508360208260051b85010111156116dd57600080fd5b600080600080600080600080600060a08a8c03121561174657600080fd5b89356001600160401b0381111561175c57600080fd5b6117688c828d0161169c565b909a5098505060208a01356001600160401b0381111561178757600080fd5b6117938c828d016116e4565b90985096505060408a01356001600160401b038111156117b257600080fd5b6117be8c828d016116e4565b90965094505060608a01356001600160401b038111156117dd57600080fd5b6117e98c828d016116e4565b9a9d999c50979a9699959894979660800135949350505050565b602080825282518282018190526000918401906040840190835b8181101561185d578351805184526020808201516001600160a01b031681860152604091820151918501919091529093019260609092019160010161181d565b509095945050505050565b60006020828403121561187a57600080fd5b81356115f1816115f8565b6000806040838503121561189857600080fd5b8235915060208301356118aa816115f8565b809150509250929050565b6000806000806000606086880312156118cd57600080fd5b8535945060208601356001600160401b038111156118ea57600080fd5b6118f68882890161169c565b90955093505060408601356001600160401b0381111561191557600080fd5b8601601f8101881361192657600080fd5b80356001600160401b0381111561193c57600080fd5b8860208260071b840101111561195157600080fd5b959894975092955050506020019190565b60018060a01b0381511682526000602082015160c0602085015261198960c085018261154f565b9050604083015115156040850152606083015160608501526080830151608085015260a083015160a08501528091505092915050565b6020815260006115f16020830184611962565b6000602082016020835280845180835260408501915060408160051b86010192506020860160005b82811015611a2b57603f19878603018452611a16858351611962565b945060209384019391909101906001016119fa565b50929695505050505050565b60008060408385031215611a4a57600080fd5b8235611a55816115f8565b915060208301356118aa816115f8565b600181811c90821680611a7957607f821691505b602082108103610be157634e487b7160e01b600052602260045260246000fd5b60208082526017908201527f70726f706f73616c20646f6573206e6f74206578697374000000000000000000604082015260600190565b634e487b7160e01b600052604160045260246000fd5b601f8211156111de57806000526020600020601f840160051c81016020851015611b0d5750805b601f840160051c820191505b81811015611b2d5760008155600101611b19565b5050505050565b81516001600160401b03811115611b4d57611b4d611ad0565b611b6181611b5b8454611a65565b84611ae6565b6020601f821160018114611b955760008315611b7d5750848201515b600019600385901b1c1916600184901b178455611b2d565b600084815260208120601f198516915b82811015611bc55787850151825560209485019460019092019101611ba5565b5084821015611be35786840151600019600387901b60f8161c191681555b50505050600190811b01905550565b634e487b7160e01b600052603260045260246000fd5b634e487b7160e01b600052601160045260246000fd5b8181038181111561061257610612611c08565b604081528260408201528284606083013760006060848301015260006060601f19601f8601168301019050826020830152949350505050565b600060018201611c7c57611c7c611c08565b5060010190565b6001600160401b03831115611c9a57611c9a611ad0565b611cae83611ca88354611a65565b83611ae6565b6000601f841160018114611ce25760008515611cca5750838201355b600019600387901b1c1916600186901b178355611b2d565b600083815260209020601f19861690835b82811015611d135786850135825560209485019460019092019101611cf3565b5086821015611d305760001960f88860031b161c19848701351681555b505060018560011b0183555050505050565b80546001600160a01b0319166001600160a01b0392909216919091179055565b813581556020820135611d74816115f8565b611d818160018401611d42565b506040820135611d90816115f8565b611d9d8160028401611d42565b5060609190910135600390910155565b8082018082111561061257610612611c0856fea26469706673582212209deaaac8780c1c70b0009a54f78a4da2a29c2855ce95ad5459f9b915d9ee40d064736f6c634300081a0033","linkReferences":{}},"methodIdentifiers":{"MIN_REQUIRED()":"445e48fc","addProposal(bytes,address[],address[],uint256[],uint256)":"52c19b17","allowance(address,address)":"dd62ed3e","approve(address,uint256)":"095ea7b3","approveProposal(uint256)":"98951b56","approved(uint256,address)":"8253951a","balanceOf(address)":"70a08231","burn(uint256)":"42966c68","burnFrom(address,uint256)":"79cc6790","decimals()":"313ce567","executeProposal(uint256)":"0d61b519","getAllProposals()":"cceb68f5","getAllShareHolders()":"539170b2","getProposal(uint256)":"c7f758a8","name()":"06fdde03","proposals(uint256)":"013cf08b","proposalsCount()":"0a9f46ad","proposedDilutions(uint256,uint256)":"4cd371ed","revokeProposal(uint256)":"85a6a091","shareHolders(uint256)":"7427a40c","shareHoldersCount()":"c544be1f","symbol()":"95d89b41","totalSupply()":"18160ddd","transfer(address,uint256)":"a9059cbb","transferFrom(address,address,uint256)":"23b872dd","updateProposal(uint256,bytes,(uint256,address,address,uint256)[])":"b30b631f"},"id":6}